{
  "_format": "hh-sol-artifact-1",
  "contractName": "AssetTokenization",
  "sourceName": "contracts/AssetTokenization.sol",
  "abi": [
    {
      "inputs": [
        {
          "internalType": "address",
          "name": "farmer",
          "type": "address"
        }
      ],
      "name": "availableContract",
      "outputs": [
        {
          "internalType": "bool",
          "name": "",
          "type": "bool"
        }
      ],
      "stateMutability": "view",
      "type": "function"
    },
    {
      "inputs": [
        {
          "internalType": "address",
          "name": "farmerAddress",
          "type": "address"
        }
      ],
      "name": "buyNft",
      "outputs": [],
      "stateMutability": "payable",
      "type": "function"
    },
    {
      "inputs": [
        {
          "internalType": "string",
          "name": "_farmerName",
          "type": "string"
        },
        {
          "internalType": "string",
          "name": "_description",
          "type": "string"
        },
        {
          "internalType": "uint256",
          "name": "_totalMint",
          "type": "uint256"
        },
        {
          "internalType": "uint256",
          "name": "_price",
          "type": "uint256"
        },
        {
          "internalType": "uint256",
          "name": "_expirationDate",
          "type": "uint256"
        }
      ],
      "name": "generateNftContract",
      "outputs": [],
      "stateMutability": "nonpayable",
      "type": "function"
    },
    {
      "inputs": [],
      "name": "getBuyers",
      "outputs": [
        {
          "internalType": "address[]",
          "name": "",
          "type": "address[]"
        }
      ],
      "stateMutability": "view",
      "type": "function"
    },
    {
      "inputs": [],
      "name": "getFarmers",
      "outputs": [
        {
          "internalType": "address[]",
          "name": "",
          "type": "address[]"
        }
      ],
      "stateMutability": "view",
      "type": "function"
    },
    {
      "inputs": [
        {
          "internalType": "address",
          "name": "farmerAddress",
          "type": "address"
        }
      ],
      "name": "getNftContractDetails",
      "outputs": [
        {
          "components": [
            {
              "internalType": "address",
              "name": "farmerAddress",
              "type": "address"
            },
            {
              "internalType": "string",
              "name": "farmerName",
              "type": "string"
            },
            {
              "internalType": "string",
              "name": "description",
              "type": "string"
            },
            {
              "internalType": "uint256",
              "name": "totalMint",
              "type": "uint256"
            },
            {
              "internalType": "uint256",
              "name": "availableMint",
              "type": "uint256"
            },
            {
              "internalType": "uint256",
              "name": "price",
              "type": "uint256"
            },
            {
              "internalType": "uint256",
              "name": "expirationDate",
              "type": "uint256"
            }
          ],
          "internalType": "struct AssetTokenization.nftContractDetails",
          "name": "",
          "type": "tuple"
        }
      ],
      "stateMutability": "view",
      "type": "function"
    }
  ],
  "bytecode": "0x608060405234801561001057600080fd5b506158dd806100206000396000f3fe6080604052600436106200005c5760003560e01c80634c48d2481462000061578063600b69561462000081578063789f8d4014620000af57806396b1753614620000df578063f64bfaba1462000123578063fff1f7431462000153575b600080fd5b6200007f600480360381019062000079919062000e9a565b62000197565b005b3480156200008e57600080fd5b50620000ad6004803603810190620000a7919062001069565b620002bc565b005b348015620000bc57600080fd5b50620000c7620003ee565b604051620000d69190620011fd565b60405180910390f35b348015620000ec57600080fd5b506200010b600480360381019062000105919062000e9a565b6200047e565b6040516200011a91906200136c565b60405180910390f35b3480156200013057600080fd5b506200013b62000aed565b6040516200014a9190620011fd565b60405180910390f35b3480156200016057600080fd5b506200017f600480360381019062000179919062000e9a565b62000c1d565b6040516200018e9190620013ad565b60405180910390f35b620001a28162000c1d565b620001e4576040517f08c379a0000000000000000000000000000000000000000000000000000000008152600401620001db906200142b565b60405180910390fd5b6000339050600160008373ffffffffffffffffffffffffffffffffffffffff1673ffffffffffffffffffffffffffffffffffffffff16815260200190815260200160002060009054906101000a900473ffffffffffffffffffffffffffffffffffffffff1673ffffffffffffffffffffffffffffffffffffffff166354ba0f2734836040518363ffffffff1660e01b81526004016200028491906200145e565b6000604051808303818588803b1580156200029e57600080fd5b505af1158015620002b3573d6000803e3d6000fd5b50505050505050565b600033905060001515620002d08262000c1d565b15151462000315576040517f08c379a00000000000000000000000000000000000000000000000000000000081526004016200030c90620014cb565b60405180910390fd5b620003208162000cb5565b6000818787878787604051620003369062000dc0565b62000347969594939291906200153f565b604051809103906000f08015801562000364573d6000803e3d6000fd5b50905080600160008473ffffffffffffffffffffffffffffffffffffffff1673ffffffffffffffffffffffffffffffffffffffff16815260200190815260200160002060006101000a81548173ffffffffffffffffffffffffffffffffffffffff021916908373ffffffffffffffffffffffffffffffffffffffff16021790555050505050505050565b606060008054806020026020016040519081016040528092919081815260200182805480156200047457602002820191906000526020600020905b8160009054906101000a900473ffffffffffffffffffffffffffffffffffffffff1673ffffffffffffffffffffffffffffffffffffffff168152602001906001019080831162000429575b5050505050905090565b6200048862000dce565b620004938262000c1d565b620004d5576040517f08c379a0000000000000000000000000000000000000000000000000000000008152600401620004cc906200160a565b60405180910390fd5b620004df62000dce565b6040518060e00160405280600160008673ffffffffffffffffffffffffffffffffffffffff1673ffffffffffffffffffffffffffffffffffffffff16815260200190815260200160002060009054906101000a900473ffffffffffffffffffffffffffffffffffffffff1673ffffffffffffffffffffffffffffffffffffffff1663b7b58b7f6040518163ffffffff1660e01b8152600401602060405180830381865afa15801562000595573d6000803e3d6000fd5b505050506040513d601f19601f82011682018060405250810190620005bb919062001643565b73ffffffffffffffffffffffffffffffffffffffff168152602001600160008673ffffffffffffffffffffffffffffffffffffffff1673ffffffffffffffffffffffffffffffffffffffff16815260200190815260200160002060009054906101000a900473ffffffffffffffffffffffffffffffffffffffff1673ffffffffffffffffffffffffffffffffffffffff1663ca669a8c6040518163ffffffff1660e01b8152600401600060405180830381865afa15801562000681573d6000803e3d6000fd5b505050506040513d6000823e3d601f19601f82011682018060405250810190620006ac9190620016f3565b8152602001600160008673ffffffffffffffffffffffffffffffffffffffff1673ffffffffffffffffffffffffffffffffffffffff16815260200190815260200160002060009054906101000a900473ffffffffffffffffffffffffffffffffffffffff1673ffffffffffffffffffffffffffffffffffffffff16637284e4166040518163ffffffff1660e01b8152600401600060405180830381865afa1580156200075c573d6000803e3d6000fd5b505050506040513d6000823e3d601f19601f82011682018060405250810190620007879190620016f3565b8152602001600160008673ffffffffffffffffffffffffffffffffffffffff1673ffffffffffffffffffffffffffffffffffffffff16815260200190815260200160002060009054906101000a900473ffffffffffffffffffffffffffffffffffffffff1673ffffffffffffffffffffffffffffffffffffffff166359a7715a6040518163ffffffff1660e01b8152600401602060405180830381865afa15801562000837573d6000803e3d6000fd5b505050506040513d601f19601f820116820180604052508101906200085d91906200175b565b8152602001600160008673ffffffffffffffffffffffffffffffffffffffff1673ffffffffffffffffffffffffffffffffffffffff16815260200190815260200160002060009054906101000a900473ffffffffffffffffffffffffffffffffffffffff1673ffffffffffffffffffffffffffffffffffffffff1663b751cb3b6040518163ffffffff1660e01b8152600401602060405180830381865afa1580156200090d573d6000803e3d6000fd5b505050506040513d601f19601f820116820180604052508101906200093391906200175b565b8152602001600160008673ffffffffffffffffffffffffffffffffffffffff1673ffffffffffffffffffffffffffffffffffffffff16815260200190815260200160002060009054906101000a900473ffffffffffffffffffffffffffffffffffffffff1673ffffffffffffffffffffffffffffffffffffffff1663a035b1fe6040518163ffffffff1660e01b8152600401602060405180830381865afa158015620009e3573d6000803e3d6000fd5b505050506040513d601f19601f8201168201806040525081019062000a0991906200175b565b8152602001600160008673ffffffffffffffffffffffffffffffffffffffff1673ffffffffffffffffffffffffffffffffffffffff16815260200190815260200160002060009054906101000a900473ffffffffffffffffffffffffffffffffffffffff1673ffffffffffffffffffffffffffffffffffffffff16638f6204876040518163ffffffff1660e01b8152600401602060405180830381865afa15801562000ab9573d6000803e3d6000fd5b505050506040513d601f19601f8201168201806040525081019062000adf91906200175b565b815250905080915050919050565b6060600033905062000aff8162000c1d565b62000b41576040517f08c379a000000000000000000000000000000000000000000000000000000000815260040162000b38906200142b565b60405180910390fd5b600160008273ffffffffffffffffffffffffffffffffffffffff1673ffffffffffffffffffffffffffffffffffffffff16815260200190815260200160002060009054906101000a900473ffffffffffffffffffffffffffffffffffffffff1673ffffffffffffffffffffffffffffffffffffffff1663d1b02ba76040518163ffffffff1660e01b8152600401600060405180830381865afa15801562000bec573d6000803e3d6000fd5b505050506040513d6000823e3d601f19601f8201168201806040525081019062000c17919062001868565b91505090565b60008073ffffffffffffffffffffffffffffffffffffffff16600160008473ffffffffffffffffffffffffffffffffffffffff1673ffffffffffffffffffffffffffffffffffffffff16815260200190815260200160002060009054906101000a900473ffffffffffffffffffffffffffffffffffffffff1673ffffffffffffffffffffffffffffffffffffffff1614159050919050565b60005b60008054905081101562000d58576000818154811062000cdd5762000cdc620018b9565b5b9060005260206000200160009054906101000a900473ffffffffffffffffffffffffffffffffffffffff1673ffffffffffffffffffffffffffffffffffffffff168273ffffffffffffffffffffffffffffffffffffffff160362000d42575062000dbd565b808062000d4f9062001917565b91505062000cb8565b506000819080600181540180825580915050600190039060005260206000200160009091909190916101000a81548173ffffffffffffffffffffffffffffffffffffffff021916908373ffffffffffffffffffffffffffffffffffffffff1602179055505b50565b613f43806200196583390190565b6040518060e00160405280600073ffffffffffffffffffffffffffffffffffffffff1681526020016060815260200160608152602001600081526020016000815260200160008152602001600081525090565b6000604051905090565b600080fd5b600080fd5b600073ffffffffffffffffffffffffffffffffffffffff82169050919050565b600062000e628262000e35565b9050919050565b62000e748162000e55565b811462000e8057600080fd5b50565b60008135905062000e948162000e69565b92915050565b60006020828403121562000eb35762000eb262000e2b565b5b600062000ec38482850162000e83565b91505092915050565b600080fd5b600080fd5b6000601f19601f8301169050919050565b7f4e487b7100000000000000000000000000000000000000000000000000000000600052604160045260246000fd5b62000f218262000ed6565b810181811067ffffffffffffffff8211171562000f435762000f4262000ee7565b5b80604052505050565b600062000f5862000e21565b905062000f66828262000f16565b919050565b600067ffffffffffffffff82111562000f895762000f8862000ee7565b5b62000f948262000ed6565b9050602081019050919050565b82818337600083830152505050565b600062000fc762000fc18462000f6b565b62000f4c565b90508281526020810184848401111562000fe65762000fe562000ed1565b5b62000ff384828562000fa1565b509392505050565b600082601f83011262001013576200101262000ecc565b5b81356200102584826020860162000fb0565b91505092915050565b6000819050919050565b62001043816200102e565b81146200104f57600080fd5b50565b600081359050620010638162001038565b92915050565b600080600080600060a0868803121562001088576200108762000e2b565b5b600086013567ffffffffffffffff811115620010a957620010a862000e30565b5b620010b78882890162000ffb565b955050602086013567ffffffffffffffff811115620010db57620010da62000e30565b5b620010e98882890162000ffb565b9450506040620010fc8882890162001052565b93505060606200110f8882890162001052565b9250506080620011228882890162001052565b9150509295509295909350565b600081519050919050565b600082825260208201905092915050565b6000819050602082019050919050565b620011668162000e55565b82525050565b60006200117a83836200115b565b60208301905092915050565b6000602082019050919050565b6000620011a0826200112f565b620011ac81856200113a565b9350620011b9836200114b565b8060005b83811015620011f0578151620011d488826200116c565b9750620011e18362001186565b925050600181019050620011bd565b5085935050505092915050565b6000602082019050818103600083015262001219818462001193565b905092915050565b600081519050919050565b600082825260208201905092915050565b60005b838110156200125d57808201518184015260208101905062001240565b60008484015250505050565b6000620012768262001221565b6200128281856200122c565b9350620012948185602086016200123d565b6200129f8162000ed6565b840191505092915050565b620012b5816200102e565b82525050565b600060e083016000830151620012d560008601826200115b565b5060208301518482036020860152620012ef828262001269565b915050604083015184820360408601526200130b828262001269565b9150506060830151620013226060860182620012aa565b506080830151620013376080860182620012aa565b5060a08301516200134c60a0860182620012aa565b5060c08301516200136160c0860182620012aa565b508091505092915050565b60006020820190508181036000830152620013888184620012bb565b905092915050565b60008115159050919050565b620013a78162001390565b82525050565b6000602082019050620013c460008301846200139c565b92915050565b600082825260208201905092915050565b7f4e6f7420796574206465706c6f79656400000000000000000000000000000000600082015250565b600062001413601083620013ca565b91506200142082620013db565b602082019050919050565b60006020820190508181036000830152620014468162001404565b9050919050565b620014588162000e55565b82525050565b60006020820190506200147560008301846200144d565b92915050565b7f596f757220746f6b656e20697320616c7265616479206465706c6f7965640000600082015250565b6000620014b3601e83620013ca565b9150620014c0826200147b565b602082019050919050565b60006020820190508181036000830152620014e681620014a4565b9050919050565b6000620014fa8262001221565b620015068185620013ca565b9350620015188185602086016200123d565b620015238162000ed6565b840191505092915050565b62001539816200102e565b82525050565b600060c0820190506200155660008301896200144d565b81810360208301526200156a8188620014ed565b90508181036040830152620015808187620014ed565b90506200159160608301866200152e565b620015a060808301856200152e565b620015af60a08301846200152e565b979650505050505050565b7f6e6f7420617661696c61626c6500000000000000000000000000000000000000600082015250565b6000620015f2600d83620013ca565b9150620015ff82620015ba565b602082019050919050565b600060208201905081810360008301526200162581620015e3565b9050919050565b6000815190506200163d8162000e69565b92915050565b6000602082840312156200165c576200165b62000e2b565b5b60006200166c848285016200162c565b91505092915050565b60006200168c620016868462000f6b565b62000f4c565b905082815260208101848484011115620016ab57620016aa62000ed1565b5b620016b88482856200123d565b509392505050565b600082601f830112620016d857620016d762000ecc565b5b8151620016ea84826020860162001675565b91505092915050565b6000602082840312156200170c576200170b62000e2b565b5b600082015167ffffffffffffffff8111156200172d576200172c62000e30565b5b6200173b84828501620016c0565b91505092915050565b600081519050620017558162001038565b92915050565b60006020828403121562001774576200177362000e2b565b5b6000620017848482850162001744565b91505092915050565b600067ffffffffffffffff821115620017ab57620017aa62000ee7565b5b602082029050602081019050919050565b600080fd5b6000620017d8620017d2846200178d565b62000f4c565b90508083825260208201905060208402830185811115620017fe57620017fd620017bc565b5b835b818110156200182b57806200181688826200162c565b84526020840193505060208101905062001800565b5050509392505050565b600082601f8301126200184d576200184c62000ecc565b5b81516200185f848260208601620017c1565b91505092915050565b60006020828403121562001881576200188062000e2b565b5b600082015167ffffffffffffffff811115620018a257620018a162000e30565b5b620018b08482850162001835565b91505092915050565b7f4e487b7100000000000000000000000000000000000000000000000000000000600052603260045260246000fd5b7f4e487b7100000000000000000000000000000000000000000000000000000000600052601160045260246000fd5b600062001924826200102e565b91507fffffffffffffffffffffffffffffffffffffffffffffffffffffffffffffffff8203620019595762001958620018e8565b5b60018201905091905056fe60806040523480156200001157600080fd5b5060405162003f4338038062003f43833981810160405281019062000037919062000389565b6040518060400160405280600881526020017f4661726d204e46540000000000000000000000000000000000000000000000008152506040518060400160405280600481526020017f4641524d000000000000000000000000000000000000000000000000000000008152508160009081620000b49190620006a4565b508060019081620000c69190620006a4565b50505085600660006101000a81548173ffffffffffffffffffffffffffffffffffffffff021916908373ffffffffffffffffffffffffffffffffffffffff16021790555084600790816200011b9190620006a4565b5083600890816200012d9190620006a4565b508260098190555082600a8190555081600b8190555080600c819055505050505050506200078b565b6000604051905090565b600080fd5b600080fd5b600073ffffffffffffffffffffffffffffffffffffffff82169050919050565b600062000197826200016a565b9050919050565b620001a9816200018a565b8114620001b557600080fd5b50565b600081519050620001c9816200019e565b92915050565b600080fd5b600080fd5b6000601f19601f8301169050919050565b7f4e487b7100000000000000000000000000000000000000000000000000000000600052604160045260246000fd5b6200022482620001d9565b810181811067ffffffffffffffff82111715620002465762000245620001ea565b5b80604052505050565b60006200025b62000156565b905062000269828262000219565b919050565b600067ffffffffffffffff8211156200028c576200028b620001ea565b5b6200029782620001d9565b9050602081019050919050565b60005b83811015620002c4578082015181840152602081019050620002a7565b60008484015250505050565b6000620002e7620002e1846200026e565b6200024f565b905082815260208101848484011115620003065762000305620001d4565b5b62000313848285620002a4565b509392505050565b600082601f830112620003335762000332620001cf565b5b815162000345848260208601620002d0565b91505092915050565b6000819050919050565b62000363816200034e565b81146200036f57600080fd5b50565b600081519050620003838162000358565b92915050565b60008060008060008060c08789031215620003a957620003a862000160565b5b6000620003b989828a01620001b8565b965050602087015167ffffffffffffffff811115620003dd57620003dc62000165565b5b620003eb89828a016200031b565b955050604087015167ffffffffffffffff8111156200040f576200040e62000165565b5b6200041d89828a016200031b565b94505060606200043089828a0162000372565b93505060806200044389828a0162000372565b92505060a06200045689828a0162000372565b9150509295509295509295565b600081519050919050565b7f4e487b7100000000000000000000000000000000000000000000000000000000600052602260045260246000fd5b60006002820490506001821680620004b657607f821691505b602082108103620004cc57620004cb6200046e565b5b50919050565b60008190508160005260206000209050919050565b60006020601f8301049050919050565b600082821b905092915050565b600060088302620005367fffffffffffffffffffffffffffffffffffffffffffffffffffffffffffffffff82620004f7565b620005428683620004f7565b95508019841693508086168417925050509392505050565b6000819050919050565b6000620005856200057f62000579846200034e565b6200055a565b6200034e565b9050919050565b6000819050919050565b620005a18362000564565b620005b9620005b0826200058c565b84845462000504565b825550505050565b600090565b620005d0620005c1565b620005dd81848462000596565b505050565b5b818110156200060557620005f9600082620005c6565b600181019050620005e3565b5050565b601f82111562000654576200061e81620004d2565b6200062984620004e7565b8101602085101562000639578190505b620006516200064885620004e7565b830182620005e2565b50505b505050565b600082821c905092915050565b6000620006796000198460080262000659565b1980831691505092915050565b600062000694838362000666565b9150826002028217905092915050565b620006af8262000463565b67ffffffffffffffff811115620006cb57620006ca620001ea565b5b620006d782546200049d565b620006e482828562000609565b600060209050601f8311600181146200071c576000841562000707578287015190505b62000713858262000686565b86555062000783565b601f1984166200072c86620004d2565b60005b8281101562000756578489015182556001820191506020850194506020810190506200072f565b8683101562000776578489015162000772601f89168262000666565b8355505b6001600288020188555050505b505050505050565b6137a8806200079b6000396000f3fe60806040526004361061014b5760003560e01c8063740ea8ab116100b6578063b7b58b7f1161006f578063b7b58b7f14610473578063b88d4fde1461049e578063c87b56dd146104c7578063ca669a8c14610504578063d1b02ba71461052f578063e985e9c51461055a5761014b565b8063740ea8ab146103875780638f6204871461039e57806395d89b41146103c9578063a035b1fe146103f4578063a22cb4651461041f578063b751cb3b146104485761014b565b806342842e0e1161010857806342842e0e1461027257806354ba0f271461029b57806359a7715a146102b75780636352211e146102e257806370a082311461031f5780637284e4161461035c5761014b565b806301ffc9a71461015057806306fdde031461018d578063081812fc146101b8578063095ea7b3146101f557806323b872dd1461021e5780632f13b60c14610247575b600080fd5b34801561015c57600080fd5b50610177600480360381019061017291906122c7565b610597565b604051610184919061230f565b60405180910390f35b34801561019957600080fd5b506101a2610679565b6040516101af91906123ba565b60405180910390f35b3480156101c457600080fd5b506101df60048036038101906101da9190612412565b61070b565b6040516101ec9190612480565b60405180910390f35b34801561020157600080fd5b5061021c600480360381019061021791906124c7565b610751565b005b34801561022a57600080fd5b5061024560048036038101906102409190612507565b610868565b005b34801561025357600080fd5b5061025c6108c8565b604051610269919061230f565b60405180910390f35b34801561027e57600080fd5b5061029960048036038101906102949190612507565b6108e5565b005b6102b560048036038101906102b0919061255a565b610905565b005b3480156102c357600080fd5b506102cc610ab3565b6040516102d99190612596565b60405180910390f35b3480156102ee57600080fd5b5061030960048036038101906103049190612412565b610ab9565b6040516103169190612480565b60405180910390f35b34801561032b57600080fd5b506103466004803603810190610341919061255a565b610b3f565b6040516103539190612596565b60405180910390f35b34801561036857600080fd5b50610371610bf6565b60405161037e91906123ba565b60405180910390f35b34801561039357600080fd5b5061039c610c84565b005b3480156103aa57600080fd5b506103b3610cfe565b6040516103c09190612596565b60405180910390f35b3480156103d557600080fd5b506103de610d04565b6040516103eb91906123ba565b60405180910390f35b34801561040057600080fd5b50610409610d96565b6040516104169190612596565b60405180910390f35b34801561042b57600080fd5b50610446600480360381019061044191906125dd565b610d9c565b005b34801561045457600080fd5b5061045d610db2565b60405161046a9190612596565b60405180910390f35b34801561047f57600080fd5b50610488610db8565b6040516104959190612480565b60405180910390f35b3480156104aa57600080fd5b506104c560048036038101906104c09190612752565b610dde565b005b3480156104d357600080fd5b506104ee60048036038101906104e99190612412565b610e40565b6040516104fb91906123ba565b60405180910390f35b34801561051057600080fd5b50610519610eb0565b60405161052691906123ba565b60405180910390f35b34801561053b57600080fd5b50610544610f3e565b6040516105519190612893565b60405180910390f35b34801561056657600080fd5b50610581600480360381019061057c91906128b5565b61101b565b60405161058e919061230f565b60405180910390f35b60007f80ac58cd000000000000000000000000000000000000000000000000000000007bffffffffffffffffffffffffffffffffffffffffffffffffffffffff1916827bffffffffffffffffffffffffffffffffffffffffffffffffffffffff1916148061066257507f5b5e139f000000000000000000000000000000000000000000000000000000007bffffffffffffffffffffffffffffffffffffffffffffffffffffffff1916827bffffffffffffffffffffffffffffffffffffffffffffffffffffffff1916145b806106725750610671826110af565b5b9050919050565b60606000805461068890612924565b80601f01602080910402602001604051908101604052809291908181526020018280546106b490612924565b80156107015780601f106106d657610100808354040283529160200191610701565b820191906000526020600020905b8154815290600101906020018083116106e457829003601f168201915b5050505050905090565b600061071682611119565b6004600083815260200190815260200160002060009054906101000a900473ffffffffffffffffffffffffffffffffffffffff169050919050565b600061075c82610ab9565b90508073ffffffffffffffffffffffffffffffffffffffff168373ffffffffffffffffffffffffffffffffffffffff16036107cc576040517f08c379a00000000000000000000000000000000000000000000000000000000081526004016107c3906129c7565b60405180910390fd5b8073ffffffffffffffffffffffffffffffffffffffff166107eb611164565b73ffffffffffffffffffffffffffffffffffffffff16148061081a575061081981610814611164565b61101b565b5b610859576040517f08c379a000000000000000000000000000000000000000000000000000000000815260040161085090612a59565b60405180910390fd5b610863838361116c565b505050565b610879610873611164565b82611225565b6108b8576040517f08c379a00000000000000000000000000000000000000000000000000000000081526004016108af90612aeb565b60405180910390fd5b6108c38383836112ba565b505050565b600042600c5410156108dd57600190506108e2565b600090505b90565b61090083838360405180602001604052806000815250610dde565b505050565b6000600a541161094a576040517f08c379a000000000000000000000000000000000000000000000000000000000815260040161094190612b57565b60405180910390fd5b600015156109566108c8565b151514610998576040517f08c379a000000000000000000000000000000000000000000000000000000000815260040161098f90612bc3565b60405180910390fd5b600b5434146109a657600080fd5b60006109b2600d6115b3565b90506109be82826115c1565b6109c8600d6115df565b600a60008154809291906109db90612c12565b91905055506000600660009054906101000a900473ffffffffffffffffffffffffffffffffffffffff1673ffffffffffffffffffffffffffffffffffffffff1634604051610a2890612c6c565b60006040518083038185875af1925050503d8060008114610a65576040519150601f19603f3d011682016040523d82523d6000602084013e610a6a565b606091505b5050905080610aae576040517f08c379a0000000000000000000000000000000000000000000000000000000008152600401610aa590612ccd565b60405180910390fd5b505050565b60095481565b600080610ac5836115f5565b9050600073ffffffffffffffffffffffffffffffffffffffff168173ffffffffffffffffffffffffffffffffffffffff1603610b36576040517f08c379a0000000000000000000000000000000000000000000000000000000008152600401610b2d90612d39565b60405180910390fd5b80915050919050565b60008073ffffffffffffffffffffffffffffffffffffffff168273ffffffffffffffffffffffffffffffffffffffff1603610baf576040517f08c379a0000000000000000000000000000000000000000000000000000000008152600401610ba690612dcb565b60405180910390fd5b600360008373ffffffffffffffffffffffffffffffffffffffff1673ffffffffffffffffffffffffffffffffffffffff168152602001908152602001600020549050919050565b60088054610c0390612924565b80601f0160208091040260200160405190810160405280929190818152602001828054610c2f90612924565b8015610c7c5780601f10610c5157610100808354040283529160200191610c7c565b820191906000526020600020905b815481529060010190602001808311610c5f57829003601f168201915b505050505081565b610c8c6108c8565b610ccb576040517f08c379a0000000000000000000000000000000000000000000000000000000008152600401610cc290612e37565b60405180910390fd5b60005b610cd8600d6115b3565b811015610cfb57610ce881611632565b8080610cf390612e57565b915050610cce565b50565b600c5481565b606060018054610d1390612924565b80601f0160208091040260200160405190810160405280929190818152602001828054610d3f90612924565b8015610d8c5780601f10610d6157610100808354040283529160200191610d8c565b820191906000526020600020905b815481529060010190602001808311610d6f57829003601f168201915b5050505050905090565b600b5481565b610dae610da7611164565b8383611780565b5050565b600a5481565b600660009054906101000a900473ffffffffffffffffffffffffffffffffffffffff1681565b610def610de9611164565b83611225565b610e2e576040517f08c379a0000000000000000000000000000000000000000000000000000000008152600401610e2590612aeb565b60405180910390fd5b610e3a848484846118ec565b50505050565b60606000610e80610e4f610679565b610e5885611948565b6008604051602001610e6c9392919061313b565b604051602081830303815290604052611a16565b9050600081604051602001610e9591906131fa565b60405160208183030381529060405290508092505050919050565b60078054610ebd90612924565b80601f0160208091040260200160405190810160405280929190818152602001828054610ee990612924565b8015610f365780601f10610f0b57610100808354040283529160200191610f36565b820191906000526020600020905b815481529060010190602001808311610f1957829003601f168201915b505050505081565b60606000610f4c600d6115b3565b67ffffffffffffffff811115610f6557610f64612627565b5b604051908082528060200260200182016040528015610f935781602001602082028036833780820191505090505b50905060005b610fa3600d6115b3565b81101561101357610fb381610ab9565b828281518110610fc657610fc561321c565b5b602002602001019073ffffffffffffffffffffffffffffffffffffffff16908173ffffffffffffffffffffffffffffffffffffffff1681525050808061100b90612e57565b915050610f99565b508091505090565b6000600560008473ffffffffffffffffffffffffffffffffffffffff1673ffffffffffffffffffffffffffffffffffffffff16815260200190815260200160002060008373ffffffffffffffffffffffffffffffffffffffff1673ffffffffffffffffffffffffffffffffffffffff16815260200190815260200160002060009054906101000a900460ff16905092915050565b60007f01ffc9a7000000000000000000000000000000000000000000000000000000007bffffffffffffffffffffffffffffffffffffffffffffffffffffffff1916827bffffffffffffffffffffffffffffffffffffffffffffffffffffffff1916149050919050565b61112281611b79565b611161576040517f08c379a000000000000000000000000000000000000000000000000000000000815260040161115890612d39565b60405180910390fd5b50565b600033905090565b816004600083815260200190815260200160002060006101000a81548173ffffffffffffffffffffffffffffffffffffffff021916908373ffffffffffffffffffffffffffffffffffffffff160217905550808273ffffffffffffffffffffffffffffffffffffffff166111df83610ab9565b73ffffffffffffffffffffffffffffffffffffffff167f8c5be1e5ebec7d5bd14f71427d1e84f3dd0314c0f7b2291e5b200ac8c7c3b92560405160405180910390a45050565b60008061123183610ab9565b90508073ffffffffffffffffffffffffffffffffffffffff168473ffffffffffffffffffffffffffffffffffffffff1614806112735750611272818561101b565b5b806112b157508373ffffffffffffffffffffffffffffffffffffffff166112998461070b565b73ffffffffffffffffffffffffffffffffffffffff16145b91505092915050565b8273ffffffffffffffffffffffffffffffffffffffff166112da82610ab9565b73ffffffffffffffffffffffffffffffffffffffff1614611330576040517f08c379a0000000000000000000000000000000000000000000000000000000008152600401611327906132bd565b60405180910390fd5b600073ffffffffffffffffffffffffffffffffffffffff168273ffffffffffffffffffffffffffffffffffffffff160361139f576040517f08c379a00000000000000000000000000000000000000000000000000000000081526004016113969061334f565b60405180910390fd5b6113ac8383836001611bba565b8273ffffffffffffffffffffffffffffffffffffffff166113cc82610ab9565b73ffffffffffffffffffffffffffffffffffffffff1614611422576040517f08c379a0000000000000000000000000000000000000000000000000000000008152600401611419906132bd565b60405180910390fd5b6004600082815260200190815260200160002060006101000a81549073ffffffffffffffffffffffffffffffffffffffff02191690556001600360008573ffffffffffffffffffffffffffffffffffffffff1673ffffffffffffffffffffffffffffffffffffffff168152602001908152602001600020600082825403925050819055506001600360008473ffffffffffffffffffffffffffffffffffffffff1673ffffffffffffffffffffffffffffffffffffffff16815260200190815260200160002060008282540192505081905550816002600083815260200190815260200160002060006101000a81548173ffffffffffffffffffffffffffffffffffffffff021916908373ffffffffffffffffffffffffffffffffffffffff160217905550808273ffffffffffffffffffffffffffffffffffffffff168473ffffffffffffffffffffffffffffffffffffffff167fddf252ad1be2c89b69c2b068fc378daa952ba7f163c4a11628f55a4df523b3ef60405160405180910390a46115ae8383836001611ce0565b505050565b600081600001549050919050565b6115db828260405180602001604052806000815250611ce6565b5050565b6001816000016000828254019250508190555050565b60006002600083815260200190815260200160002060009054906101000a900473ffffffffffffffffffffffffffffffffffffffff169050919050565b600061163d82610ab9565b905061164d816000846001611bba565b61165682610ab9565b90506004600083815260200190815260200160002060006101000a81549073ffffffffffffffffffffffffffffffffffffffff02191690556001600360008373ffffffffffffffffffffffffffffffffffffffff1673ffffffffffffffffffffffffffffffffffffffff168152602001908152602001600020600082825403925050819055506002600083815260200190815260200160002060006101000a81549073ffffffffffffffffffffffffffffffffffffffff021916905581600073ffffffffffffffffffffffffffffffffffffffff168273ffffffffffffffffffffffffffffffffffffffff167fddf252ad1be2c89b69c2b068fc378daa952ba7f163c4a11628f55a4df523b3ef60405160405180910390a461177c816000846001611ce0565b5050565b8173ffffffffffffffffffffffffffffffffffffffff168373ffffffffffffffffffffffffffffffffffffffff16036117ee576040517f08c379a00000000000000000000000000000000000000000000000000000000081526004016117e5906133bb565b60405180910390fd5b80600560008573ffffffffffffffffffffffffffffffffffffffff1673ffffffffffffffffffffffffffffffffffffffff16815260200190815260200160002060008473ffffffffffffffffffffffffffffffffffffffff1673ffffffffffffffffffffffffffffffffffffffff16815260200190815260200160002060006101000a81548160ff0219169083151502179055508173ffffffffffffffffffffffffffffffffffffffff168373ffffffffffffffffffffffffffffffffffffffff167f17307eab39ab6107e8899845ad3d59bd9653f200f220920489ca2b5937696c31836040516118df919061230f565b60405180910390a3505050565b6118f78484846112ba565b61190384848484611d41565b611942576040517f08c379a00000000000000000000000000000000000000000000000000000000081526004016119399061344d565b60405180910390fd5b50505050565b60606000600161195784611ec8565b01905060008167ffffffffffffffff81111561197657611975612627565b5b6040519080825280601f01601f1916602001820160405280156119a85781602001600182028036833780820191505090505b509050600082602001820190505b600115611a0b578080600190039150507f3031323334353637383961626364656600000000000000000000000000000000600a86061a8153600a85816119ff576119fe61346d565b5b049450600085036119b6575b819350505050919050565b60606000825103611a3857604051806020016040528060008152509050611b74565b60006040518060600160405280604081526020016137336040913990506000600360028551611a67919061349c565b611a7191906134d0565b6004611a7d9190613501565b67ffffffffffffffff811115611a9657611a95612627565b5b6040519080825280601f01601f191660200182016040528015611ac85781602001600182028036833780820191505090505b509050600182016020820185865187015b80821015611b34576003820191508151603f8160121c168501518453600184019350603f81600c1c168501518453600184019350603f8160061c168501518453600184019350603f8116850151845360018401935050611ad9565b5050600386510660018114611b505760028114611b6357611b6b565b603d6001830353603d6002830353611b6b565b603d60018303535b50505080925050505b919050565b60008073ffffffffffffffffffffffffffffffffffffffff16611b9b836115f5565b73ffffffffffffffffffffffffffffffffffffffff1614159050919050565b6001811115611cda57600073ffffffffffffffffffffffffffffffffffffffff168473ffffffffffffffffffffffffffffffffffffffff1614611c4e5780600360008673ffffffffffffffffffffffffffffffffffffffff1673ffffffffffffffffffffffffffffffffffffffff1681526020019081526020016000206000828254611c469190613543565b925050819055505b600073ffffffffffffffffffffffffffffffffffffffff168373ffffffffffffffffffffffffffffffffffffffff1614611cd95780600360008573ffffffffffffffffffffffffffffffffffffffff1673ffffffffffffffffffffffffffffffffffffffff1681526020019081526020016000206000828254611cd1919061349c565b925050819055505b5b50505050565b50505050565b611cf0838361201b565b611cfd6000848484611d41565b611d3c576040517f08c379a0000000000000000000000000000000000000000000000000000000008152600401611d339061344d565b60405180910390fd5b505050565b6000611d628473ffffffffffffffffffffffffffffffffffffffff16612238565b15611ebb578373ffffffffffffffffffffffffffffffffffffffff1663150b7a02611d8b611164565b8786866040518563ffffffff1660e01b8152600401611dad94939291906135cc565b6020604051808303816000875af1925050508015611de957506040513d601f19601f82011682018060405250810190611de6919061362d565b60015b611e6b573d8060008114611e19576040519150601f19603f3d011682016040523d82523d6000602084013e611e1e565b606091505b506000815103611e63576040517f08c379a0000000000000000000000000000000000000000000000000000000008152600401611e5a9061344d565b60405180910390fd5b805181602001fd5b63150b7a0260e01b7bffffffffffffffffffffffffffffffffffffffffffffffffffffffff1916817bffffffffffffffffffffffffffffffffffffffffffffffffffffffff191614915050611ec0565b600190505b949350505050565b600080600090507a184f03e93ff9f4daa797ed6e38ed64bf6a1f0100000000000000008310611f26577a184f03e93ff9f4daa797ed6e38ed64bf6a1f0100000000000000008381611f1c57611f1b61346d565b5b0492506040810190505b6d04ee2d6d415b85acef81000000008310611f63576d04ee2d6d415b85acef81000000008381611f5957611f5861346d565b5b0492506020810190505b662386f26fc100008310611f9257662386f26fc100008381611f8857611f8761346d565b5b0492506010810190505b6305f5e1008310611fbb576305f5e1008381611fb157611fb061346d565b5b0492506008810190505b6127108310611fe0576127108381611fd657611fd561346d565b5b0492506004810190505b606483106120035760648381611ff957611ff861346d565b5b0492506002810190505b600a8310612012576001810190505b80915050919050565b600073ffffffffffffffffffffffffffffffffffffffff168273ffffffffffffffffffffffffffffffffffffffff160361208a576040517f08c379a0000000000000000000000000000000000000000000000000000000008152600401612081906136a6565b60405180910390fd5b61209381611b79565b156120d3576040517f08c379a00000000000000000000000000000000000000000000000000000000081526004016120ca90613712565b60405180910390fd5b6120e1600083836001611bba565b6120ea81611b79565b1561212a576040517f08c379a000000000000000000000000000000000000000000000000000000000815260040161212190613712565b60405180910390fd5b6001600360008473ffffffffffffffffffffffffffffffffffffffff1673ffffffffffffffffffffffffffffffffffffffff16815260200190815260200160002060008282540192505081905550816002600083815260200190815260200160002060006101000a81548173ffffffffffffffffffffffffffffffffffffffff021916908373ffffffffffffffffffffffffffffffffffffffff160217905550808273ffffffffffffffffffffffffffffffffffffffff16600073ffffffffffffffffffffffffffffffffffffffff167fddf252ad1be2c89b69c2b068fc378daa952ba7f163c4a11628f55a4df523b3ef60405160405180910390a4612234600083836001611ce0565b5050565b6000808273ffffffffffffffffffffffffffffffffffffffff163b119050919050565b6000604051905090565b600080fd5b600080fd5b60007fffffffff0000000000000000000000000000000000000000000000000000000082169050919050565b6122a48161226f565b81146122af57600080fd5b50565b6000813590506122c18161229b565b92915050565b6000602082840312156122dd576122dc612265565b5b60006122eb848285016122b2565b91505092915050565b60008115159050919050565b612309816122f4565b82525050565b60006020820190506123246000830184612300565b92915050565b600081519050919050565b600082825260208201905092915050565b60005b83811015612364578082015181840152602081019050612349565b60008484015250505050565b6000601f19601f8301169050919050565b600061238c8261232a565b6123968185612335565b93506123a6818560208601612346565b6123af81612370565b840191505092915050565b600060208201905081810360008301526123d48184612381565b905092915050565b6000819050919050565b6123ef816123dc565b81146123fa57600080fd5b50565b60008135905061240c816123e6565b92915050565b60006020828403121561242857612427612265565b5b6000612436848285016123fd565b91505092915050565b600073ffffffffffffffffffffffffffffffffffffffff82169050919050565b600061246a8261243f565b9050919050565b61247a8161245f565b82525050565b60006020820190506124956000830184612471565b92915050565b6124a48161245f565b81146124af57600080fd5b50565b6000813590506124c18161249b565b92915050565b600080604083850312156124de576124dd612265565b5b60006124ec858286016124b2565b92505060206124fd858286016123fd565b9150509250929050565b6000806000606084860312156125205761251f612265565b5b600061252e868287016124b2565b935050602061253f868287016124b2565b9250506040612550868287016123fd565b9150509250925092565b6000602082840312156125705761256f612265565b5b600061257e848285016124b2565b91505092915050565b612590816123dc565b82525050565b60006020820190506125ab6000830184612587565b92915050565b6125ba816122f4565b81146125c557600080fd5b50565b6000813590506125d7816125b1565b92915050565b600080604083850312156125f4576125f3612265565b5b6000612602858286016124b2565b9250506020612613858286016125c8565b9150509250929050565b600080fd5b600080fd5b7f4e487b7100000000000000000000000000000000000000000000000000000000600052604160045260246000fd5b61265f82612370565b810181811067ffffffffffffffff8211171561267e5761267d612627565b5b80604052505050565b600061269161225b565b905061269d8282612656565b919050565b600067ffffffffffffffff8211156126bd576126bc612627565b5b6126c682612370565b9050602081019050919050565b82818337600083830152505050565b60006126f56126f0846126a2565b612687565b90508281526020810184848401111561271157612710612622565b5b61271c8482856126d3565b509392505050565b600082601f8301126127395761273861261d565b5b81356127498482602086016126e2565b91505092915050565b6000806000806080858703121561276c5761276b612265565b5b600061277a878288016124b2565b945050602061278b878288016124b2565b935050604061279c878288016123fd565b925050606085013567ffffffffffffffff8111156127bd576127bc61226a565b5b6127c987828801612724565b91505092959194509250565b600081519050919050565b600082825260208201905092915050565b6000819050602082019050919050565b61280a8161245f565b82525050565b600061281c8383612801565b60208301905092915050565b6000602082019050919050565b6000612840826127d5565b61284a81856127e0565b9350612855836127f1565b8060005b8381101561288657815161286d8882612810565b975061287883612828565b925050600181019050612859565b5085935050505092915050565b600060208201905081810360008301526128ad8184612835565b905092915050565b600080604083850312156128cc576128cb612265565b5b60006128da858286016124b2565b92505060206128eb858286016124b2565b9150509250929050565b7f4e487b7100000000000000000000000000000000000000000000000000000000600052602260045260246000fd5b6000600282049050600182168061293c57607f821691505b60208210810361294f5761294e6128f5565b5b50919050565b7f4552433732313a20617070726f76616c20746f2063757272656e74206f776e6560008201527f7200000000000000000000000000000000000000000000000000000000000000602082015250565b60006129b1602183612335565b91506129bc82612955565b604082019050919050565b600060208201905081810360008301526129e0816129a4565b9050919050565b7f4552433732313a20617070726f76652063616c6c6572206973206e6f7420746f60008201527f6b656e206f776e6572206f7220617070726f76656420666f7220616c6c000000602082015250565b6000612a43603d83612335565b9150612a4e826129e7565b604082019050919050565b60006020820190508181036000830152612a7281612a36565b9050919050565b7f4552433732313a2063616c6c6572206973206e6f7420746f6b656e206f776e6560008201527f72206f7220617070726f76656400000000000000000000000000000000000000602082015250565b6000612ad5602d83612335565b9150612ae082612a79565b604082019050919050565b60006020820190508181036000830152612b0481612ac8565b9050919050565b7f4e6f7420656e6f756768206e6674000000000000000000000000000000000000600082015250565b6000612b41600e83612335565b9150612b4c82612b0b565b602082019050919050565b60006020820190508181036000830152612b7081612b34565b9050919050565b7f416c726561647920657870697265640000000000000000000000000000000000600082015250565b6000612bad600f83612335565b9150612bb882612b77565b602082019050919050565b60006020820190508181036000830152612bdc81612ba0565b9050919050565b7f4e487b7100000000000000000000000000000000000000000000000000000000600052601160045260246000fd5b6000612c1d826123dc565b915060008203612c3057612c2f612be3565b5b600182039050919050565b600081905092915050565b50565b6000612c56600083612c3b565b9150612c6182612c46565b600082019050919050565b6000612c7782612c49565b9150819050919050565b7f4661696c656420746f2077697468647261772041564158000000000000000000600082015250565b6000612cb7601783612335565b9150612cc282612c81565b602082019050919050565b60006020820190508181036000830152612ce681612caa565b9050919050565b7f4552433732313a20696e76616c696420746f6b656e2049440000000000000000600082015250565b6000612d23601883612335565b9150612d2e82612ced565b602082019050919050565b60006020820190508181036000830152612d5281612d16565b9050919050565b7f4552433732313a2061646472657373207a65726f206973206e6f74206120766160008201527f6c6964206f776e65720000000000000000000000000000000000000000000000602082015250565b6000612db5602983612335565b9150612dc082612d59565b604082019050919050565b60006020820190508181036000830152612de481612da8565b9050919050565b7f7374696c6c20617661696c61626c650000000000000000000000000000000000600082015250565b6000612e21600f83612335565b9150612e2c82612deb565b602082019050919050565b60006020820190508181036000830152612e5081612e14565b9050919050565b6000612e62826123dc565b91507fffffffffffffffffffffffffffffffffffffffffffffffffffffffffffffffff8203612e9457612e93612be3565b5b600182019050919050565b600081905092915050565b7f7b226e616d65223a202200000000000000000000000000000000000000000000600082015250565b6000612ee0600a83612e9f565b9150612eeb82612eaa565b600a82019050919050565b6000612f018261232a565b612f0b8185612e9f565b9350612f1b818560208601612346565b80840191505092915050565b7f202d2d204e465420233a20000000000000000000000000000000000000000000600082015250565b6000612f5d600b83612e9f565b9150612f6882612f27565b600b82019050919050565b7f222c20226465736372697074696f6e223a202200000000000000000000000000600082015250565b6000612fa9601383612e9f565b9150612fb482612f73565b601382019050919050565b60008190508160005260206000209050919050565b60008154612fe181612924565b612feb8186612e9f565b94506001821660008114613006576001811461301b5761304e565b60ff198316865281151582028601935061304e565b61302485612fbf565b60005b8381101561304657815481890152600182019150602081019050613027565b838801955050505b50505092915050565b7f222c2022696d616765223a202200000000000000000000000000000000000000600082015250565b600061308d600d83612e9f565b915061309882613057565b600d82019050919050565b7f68747470733a2f2f692e696d6775722e636f6d2f475a43647458752e6a706700600082015250565b60006130d9601f83612e9f565b91506130e4826130a3565b601f82019050919050565b7f227d000000000000000000000000000000000000000000000000000000000000600082015250565b6000613125600283612e9f565b9150613130826130ef565b600282019050919050565b600061314682612ed3565b91506131528286612ef6565b915061315d82612f50565b91506131698285612ef6565b915061317482612f9c565b91506131808284612fd4565b915061318b82613080565b9150613196826130cc565b91506131a182613118565b9150819050949350505050565b7f646174613a6170706c69636174696f6e2f6a736f6e3b6261736536342c000000600082015250565b60006131e4601d83612e9f565b91506131ef826131ae565b601d82019050919050565b6000613205826131d7565b91506132118284612ef6565b915081905092915050565b7f4e487b7100000000000000000000000000000000000000000000000000000000600052603260045260246000fd5b7f4552433732313a207472616e736665722066726f6d20696e636f72726563742060008201527f6f776e6572000000000000000000000000000000000000000000000000000000602082015250565b60006132a7602583612335565b91506132b28261324b565b604082019050919050565b600060208201905081810360008301526132d68161329a565b9050919050565b7f4552433732313a207472616e7366657220746f20746865207a65726f2061646460008201527f7265737300000000000000000000000000000000000000000000000000000000602082015250565b6000613339602483612335565b9150613344826132dd565b604082019050919050565b600060208201905081810360008301526133688161332c565b9050919050565b7f4552433732313a20617070726f766520746f2063616c6c657200000000000000600082015250565b60006133a5601983612335565b91506133b08261336f565b602082019050919050565b600060208201905081810360008301526133d481613398565b9050919050565b7f4552433732313a207472616e7366657220746f206e6f6e20455243373231526560008201527f63656976657220696d706c656d656e7465720000000000000000000000000000602082015250565b6000613437603283612335565b9150613442826133db565b604082019050919050565b600060208201905081810360008301526134668161342a565b9050919050565b7f4e487b7100000000000000000000000000000000000000000000000000000000600052601260045260246000fd5b60006134a7826123dc565b91506134b2836123dc565b92508282019050808211156134ca576134c9612be3565b5b92915050565b60006134db826123dc565b91506134e6836123dc565b9250826134f6576134f561346d565b5b828204905092915050565b600061350c826123dc565b9150613517836123dc565b9250828202613525816123dc565b9150828204841483151761353c5761353b612be3565b5b5092915050565b600061354e826123dc565b9150613559836123dc565b925082820390508181111561357157613570612be3565b5b92915050565b600081519050919050565b600082825260208201905092915050565b600061359e82613577565b6135a88185613582565b93506135b8818560208601612346565b6135c181612370565b840191505092915050565b60006080820190506135e16000830187612471565b6135ee6020830186612471565b6135fb6040830185612587565b818103606083015261360d8184613593565b905095945050505050565b6000815190506136278161229b565b92915050565b60006020828403121561364357613642612265565b5b600061365184828501613618565b91505092915050565b7f4552433732313a206d696e7420746f20746865207a65726f2061646472657373600082015250565b6000613690602083612335565b915061369b8261365a565b602082019050919050565b600060208201905081810360008301526136bf81613683565b9050919050565b7f4552433732313a20746f6b656e20616c7265616479206d696e74656400000000600082015250565b60006136fc601c83612335565b9150613707826136c6565b602082019050919050565b6000602082019050818103600083015261372b816136ef565b905091905056fe4142434445464748494a4b4c4d4e4f505152535455565758595a6162636465666768696a6b6c6d6e6f707172737475767778797a303132333435363738392b2fa26469706673582212201335abaf8b11fdab34fb5d6e5650a37d8ca11e91b7d028629e60816abc56134964736f6c63430008110033a2646970667358221220888e290e3dd11436d9feab590dcd67b73f426d4bf1ed99a2a8aa265256e8eecc64736f6c63430008110033",
  "linkReferences": {},
  "deployedLinkReferences": {}
}